:020000040800F2
:10000000880D002091150008350500083705000807
:100010003B0500083F0500084305000800000000FC
:10002000000000000000000000000000470500087C
:1000300049050008000000004B0500084D050008B8
:10004000AB150008AB150008AB150008AB15000890
:10005000AB150008AB150008AB150008AB15000880
:10006000AB150008AB150008AB150008AB15000870
:10007000AB150008AB150008AB150008AB15000860
:10008000AB150008AB150008AB150008AB15000850
:10009000AB150008AB150008AB150008AB15000840
:1000A000AB150008AB150008AB150008AB15000830
:1000B000AB1500085F120008AB150008AB1500086F
:1000C000AB150008AB150008AB150008AB15000810
:1000D000AB15000805150008AB1500083511000820
:1000E000AB150008AB150008AB150008AB150008F0
:1000F000AB150008AB150008AB150008AB150008E0
:10010000AB150008AB150008AB150008AB150008CF
:10011000AB150008AB150008AB150008AB150008BF
:10012000AB150008AB150008AB150008AB150008AF
:1001300000F002F800F073F80AA090E8000C824486
:100140008344AAF10107DA4501D100F068F8AFF263
:10015000090EBAE80F0013F0010F18BFFB1A43F0A5
:100160000103184714820000348200000A444FF053
:10017000000C10F8013B13F0070408BF10F8014B06
:100180001D1108BF10F8015B641E05D010F8016B4B
:10019000641E01F8016BF9D113F0080F1EBF10F8AF
:1001A000014BAD1C0C1B09D16D1E58BF01F801CBD2
:1001B000FAD505E014F8016B01F8016B6D1EF9D555
:1001C0009142D6D37047000000230024002500266A
:1001D000103A28BF78C1FBD8520728BF30C148BFAA
:1001E0000B607047662907F03884642905F0848322
:1001F000782905F0BD83002070471FB505F0E4FFA6
:1002000004000020002106F03BFD401C606000203F
:10021000002106F04BFDE0601FBD10B510BD06F0DB
:10022000EBF81146FFF7E9FF00F041F806F009F995
:1002300003B4FFF7F2FF03BC01F008F910B541F673
:100240001F41092000F0DEFF4FF4165000F083FF3D
:100250008A4800210160416004F0E6FE10BD10B53F
:10026000874A8849884800F009FF8748B0F90000AC
:10027000404240F2796190FBF1F4204607F080FAA9
:10028000824908607F48B0F90000404240F279613D
:1002900090FBF1F4204607F073FA7D4908607B4833
:1002A0000068764908607A480068486010BD90B0E0
:1002B0004FF0000B00BF01F05FF84FF4A06001F0B9
:1002C0000BFF4FF4E13001F0D0F800F031FA00F00C
:1002D000D5FF00F055FA00F027FE694A69496A48DF
:1002E00000F0CCFE6B4A6C496C4800F09FFEFFF7B3
:1002F000A5FF01206A490860BEE0614A6149624881
:1003000000F0BCFE634A6449644800F08FFE5E481A
:10031000B0F90000404207F033FA5C4908605948E0
:10032000B0F90000404207F02BFA594908605448E0
:10033000B0F90000404207F023FA5A4908605748D4
:10034000B0F9000007F01CFA574908605248B0F9AC
:10035000000007F015FA554908604E48B0F9000052
:1003600007F00EFA524908600846006807F03CF8AA
:1003700004460D464D48006807F036F806460F461D
:100380004948006807F030F88046894645480068CB
:1003900007F02AF8CDE90E013D48006807F024F87F
:1003A000CDE90C013948006807F01EF8CDE9048951
:1003B000CDE90667CDE90845CDE90A01DDE90E0181
:1003C000CDE90201DDE90C01CDE9000139A0DDE94B
:1003D0000A2305F05DFA4FF47A7001F00AF84148FB
:1003E000007883450CD03F4890F800B0BBF1000F77
:1003F00003D03DA005F04CFA02E03DA005F048FA1C
:10040000FFF72DFF1D4804F0D6FF002000F050FF3D
:100410008246BAF1010F07D12148006808B90120CE
:1004200000E000201E490860BAF1010F0DD11C4800
:10043000006808B9012000E00020194908602EA0DA
:1004400005F026FA022004F005FEBAF1040F10D1DF
:100450003048006808B9012000E000202D490860FC
:100460002DA005F015FA002004F0F4FD00201D4930
:100470000870FA2000F0BDFF3FE7000005050020EE
:100480000400002002000020000000200C000020DA
:10049000100000200A0000200800002006000020B4
:1004A000A001214214000020180000201C000020A0
:1004B000200000202F2F61783D25662F2F61793D88
:1004C00025662F2F617A3D25662F2F67783D25669B
:1004D0002F2F67793D25662F2F677A3D25660D0AF8
:1004E0000000000024000020636F6E6E65637400DE
:1004F000636C6F736500000057494649BDF8C8EB4F
:100500004169724C696E6BC1ACBDD3C4A3CABD0D49
:100510000A0000008881224257494649B8B4CEBB40
:10052000A3ACC7EBD6D8D0C2C5E4D6C3C1ACBDD34B
:100530000D0A0000704700BFFEE700BFFEE700BFE6
:10054000FEE700BFFEE77047704770477047000046
:100550000CB50020019000906C48006840F4803099
:100560006A49086000BF6948006800F400300090E4
:100570000198401C0190009818B90198B0F5A06F3F
:10058000F1D16248006800F4003010B10120009001
:1005900001E0002000900098012843D15C480068E9
:1005A00040F010005A4908600846006820F0030037
:1005B00008600846006840F0020008605348406840
:1005C000524948600846406848600846406840F420
:1005D000806048600846406820F47C104860084607
:1005E000406840F4E81048600846006840F08070B9
:1005F000086000BF4548006800F000700028F9D08E
:100600004248406820F0030040494860084640687E
:1006100040F00200486000BF3C48406800F00C0019
:100620000828F9D10CBD10B5FFF792FF10BD10B529
:100630003648006840F001003449086008464068C8
:10064000344908403149486008460068324908404A
:100650002E4908600846006820F48020086008469B
:10066000406820F4FE0048604FF41F008860FFF7E8
:10067000DAFF4FF000602949086010BD10B5002175
:1006800000200022214B5B6803F00C0121B10429FA
:1006900006D0082928D107E0214B224C236027E00F
:1006A0001F4B204C236023E0184B5B6803F4701051
:1006B000164B5B6803F48032022303EB904022B9AF
:1006C000194B4343174C23600DE0104B5B6803F458
:1006D000003323B1144B4343124C236003E0104B0F
:1006E0004343104C236003E00D4B0E4C236000BFCE
:1006F00000BF064B5B68C3F303130C4CE15C094B72
:100700001B68CB40074C236010BD00000010024066
:10071000002002400000FFF8FFFFF6FE08ED00E0B9
:1007200000127A002800002000093D002C00002063
:1007300008B50121242001F067FA4FF48070ADF86C
:10074000000010208DF8030003208DF80200694698
:10075000094800F09DFF4FF48071074801F045F80B
:100760000420ADF800006946044800F091FF042120
:10077000024801F03AF808BD0008014000140140A9
:1007800000B585B00121480501F04BFA0121082090
:1007900001F03AFAC020ADF8000003208DF8020005
:1007A0001C208DF803006946F44800F071FFF448FE
:1007B00001F000FD0020ADF808004BF6FF70ADF829
:1007C0000A003020ADF80C004FF48060ADF80E0048
:1007D0000001ADF81000EB4801900121E84801F05C
:1007E00080FD01A9E64801F0FEFC05B000BD70B532
:1007F00004460D4600BF4FF40031E14801F098FE79
:100800000028F8D10121DE4801F08FFD00BFDE494C
:10081000DB4801F06BFE0028F9D000227821D8488F
:1008200001F0D9FD00BFD949D54801F05FFE00288D
:10083000F9D02146D24801F0C8FD00BFD349891C38
:10084000CF4801F053FE0028F8D02946CC4801F0EB
:10085000BCFD00BFCD49891CC94801F047FE0028F6
:10086000F8D00121C64801F06CFD70BD10B50446FA
:1008700021460020FFF7BBFF10BD10B504462146FE
:100880004020FFF7B4FF10BD10B5642000F0B1FDAB
:10089000AE20FFF7EBFF2020FFF7E8FF1020FFF767
:1008A000E5FFB020FFF7E2FFC820FFF7DFFF0020E1
:1008B000FFF7DCFF1020FFF7D9FF4020FFF7D6FF3E
:1008C0008120FFF7D3FFFF20FFF7D0FFA120FFF724
:1008D000CDFFA620FFF7CAFFA820FFF7C7FF3F20E4
:1008E000FFF7C4FFA420FFF7C1FFD320FFF7BEFF2F
:1008F0000020FFF7BBFFD520FFF7B8FFF020FFF780
:10090000B5FFD920FFF7B2FF2220FFF7AFFFDA20B3
:10091000FFF7ACFF1220FFF7A9FFDB20FFF7A6FFD0
:100920002020FFF7A3FF8D20FFF7A0FF1420FFF783
:100930009DFFAF20FFF79AFF10BD70B504460D462E
:1009400005F1B001C8B2FFF791FF102141EA141080
:10095000FFF78CFF04F00F0141F00100FFF786FF65
:1009600070BD70B50646002415E004F1B001C8B2B0
:10097000FFF77CFF0020FFF779FF1020FFF776FFDD
:10098000002504E03046FFF778FF681CC5B2802DD3
:10099000F8DB601CC4B2082CE7DB70BD10B500208A
:1009A000FFF7DFFF10BD10B58D20FFF75FFF1420AC
:1009B000FFF75CFFAF20FFF759FF10BD10B58D208A
:1009C000FFF754FF1020FFF751FFAE20FFF74EFF57
:1009D00010BD2DE9F0470646894617469A464FF066
:1009E000000800240025BAF1010F03D0BAF1020F6C
:1009F0005ED125E020E0785D203800F0FF087E2EF3
:100A000004DD002609F1010000F0FF0949463046E7
:100A1000FFF793FF002409E008EB48015C4A02EB72
:100A20004101085DFFF729FF601CC4B2062CF3DB0F
:100A3000B01DC6B2681CC5B2785D0028DBD137E0B6
:100A400032E0785D203800F0FF08782E04DD0026C3
:100A500009F1010000F0FF0949463046FFF76DFF3C
:100A6000002407E004EB08114A4A505CFFF705FF39
:100A7000601CC4B2082CF5DB09F10100C1B230469C
:100A8000FFF75BFF002408E004EB08110831414A3E
:100A9000505CFFF7F2FE601CC4B2082CF4DB06F1D8
:100AA0000800C6B2681CC5B2785D0028C9D100BF75
:100AB00000BFBDE8F0872DE9F04180460E4617469D
:100AC00000247D0131464046FFF737FF00BF06E0B6
:100AD0003149485DFFF7D1FE6D1C601CC4B2102C7B
:100AE000F6DB701CC1B24046FFF727FF002406E08A
:100AF0002949485DFFF7C1FE6D1C601CC4B2102C73
:100B0000F6DBBDE8F0812DE9F05F06460F46904622
:100B10001C46DDF828A04FF0000BE11704EB5171E3
:100B2000C910A4EBC10131B92046E11704EB5171A2
:100B3000C1F3C70506E02046E11704EB5171C91067
:100B4000491CCDB23D4614E029463046FFF7F5FE7C
:100B5000B1460AE059460BF1010B1AF80100FFF704
:100B60008CFE09F1010000F0FF09C145F2DB681CB1
:100B7000C5B2A542E8DBBDE8F09F0000000C0140D3
:100B800000540040801A06000100030082000700A4
:100B90005E7A0008867C00083C0000201CB501211C
:100BA000082001F031F810208DF807004FF4407054
:100BB000ADF8040003208DF8060001A9F84800F004
:100BC00067FD0121102001F01FF84FF4C050ADF86F
:100BD000000010208DF8030003208DF80200694604
:100BE000F04800F055FD4FF4C051EE4800F0FDFD17
:100BF0000120ED490860ED49C1F8A0011CBD10B508
:100C0000E748001D006820F00F00E549091D086055
:100C10000846006840F0030008600120E249091F0F
:100C20000860E249C1F8A401022000F0BEFB0020E8
:100C3000DD49091F0860022000F0B7FB0020DB49F6
:100C4000C1F8A40110BD10B5D548001D006820F002
:100C50000F00D349091D08600846006840F00300F2
:100C600008600020D0490860D049C1F8A0010220E6
:100C700000F09BFB0120CC490860CC49C1F8A001E1
:100C8000022000F092FB10BD10B50024C448001DE6
:100C9000006820F00F00C249091D0860084600687E
:100CA00040F0080008600120BF49091F08600220C9
:100CB00000F07BFB0120BD49C1F8A401022000F037
:100CC00074FB07E0601CC4B2FA2C03DDFFF7BBFF26
:100CD000012010BDB448843800680028F2D1B24920
:100CE000086000BFF5E710B50020AF490860AC48C8
:100CF000001D006820F00F00A949091D0860084682
:100D0000006840F0030008600020A849C1F8A00175
:100D1000022000F04AFB0120A3490860022000F0F5
:100D200044FB0020A149C1F8A40110BD10B500206A
:100D30009D4908609A48001D006820F00F009849FE
:100D4000091D08600846006840F0030008600120A3
:100D50009649C1F8A001022000F027FB012092492A
:100D60000860022000F021FB00209049C1F8A40196
:100D700010BD70B504468A48001D006820F00F00C1
:100D80008749091D08600846006840F003000860B4
:100D9000002085490860002517E0E0098249091F05
:100DA00008606006040E022000F0FFFA01207F496F
:100DB000C1F8A401022000F0F8FA00207A49086086
:100DC000022000F0F2FA681CC5B2082DE5DB70BD08
:100DD00070B5054600247248001D006820F00F0021
:100DE0006F49091D08600846006840F00800086067
:100DF000002616E000206C490860022000F0D5FAB9
:100E000001206A49C1F8A4016006040E66488438CE
:100E1000006808B1601CC4B2022000F0C6FA701C61
:100E2000C6B2082EE6DB15B9FFF780FF01E0FFF739
:100E30005AFF204670BD70B505460C46FFF7DFFE31
:100E4000D020FFF796FFFFF71FFF18B1FFF7FBFE5B
:100E5000012070BD2846FFF78CFFFFF715FF2046E5
:100E6000FFF787FFFFF710FF18B1FFF7ECFE012037
:100E7000EFE7FFF7E8FE0020EBE770B50446FFF769
:100E8000BEFED020FFF775FFFFF7FEFE2046FFF7FE
:100E900070FFFFF7F9FEFFF7B2FED120FFF769FF01
:100EA000FFF7F2FE0020FFF793FF0546FFF7CBFEAA
:100EB000284670BD70B504460025BC2C01DB012519
:100EC00010E0622C01DB02250CE02A2C01DB03255B
:100ED00008E0142C01DB042504E00A2C01DB0525C5
:100EE00000E0062529461A20FFF7A5FF70BD70B562
:100EF0000446B4F57A7F01DD4FF47A74042C00DAED
:100F000004244FF47A7090FBF4F0401EC5B22946D9
:100F10001920FFF790FF0546264604EBD671C1F372
:100F20004F00FFF7C7FF70BD10B5FFF737FE8021F8
:100F30006B20FFF780FF642000F05BFA00216B203C
:100F4000FFF779FF18211B20FFF775FF00211C20F8
:100F5000FFF771FF3220FFF7CAFF00213820FFF7AB
:100F60006AFF00216A20FFF766FF00212320FFF7B8
:100F700062FF80213720FFF75EFF7520FFF77DFFBE
:100F80000446682C14D101216B20FFF754FF002187
:100F90006C20FFF750FF3220FFF7A9FF0AE00000A6
:100FA000000C014000100140A48121420080214238
:100FB000012010BD0020FCE72DE9F04106460F4658
:100FC00014461D46FFF71BFE002141EA4601C8B248
:100FD000FFF7CFFEFFF758FE20B1FFF734FE0120E8
:100FE000BDE8F0813846FFF7C4FEFFF74DFEFFF77E
:100FF00006FE012101EB4601C8B2FFF7BAFEFFF77A
:1010000043FE0DE0012C04D10020FFF7E1FE287023
:1010100003E00120FFF7DCFE2870601EC4B26D1CE7
:10102000002CEFD1FFF70FFE0020D9E72DE9FC419E
:1010300004460D4616466B46062243216820FFF7FC
:10104000BBFF0746BFB99DF801009DF8001040EABC
:10105000012000B220809DF803009DF8021040EAB4
:10106000012000B228809DF805009DF8041040EA98
:10107000012000B230803846BDE8FC812DE9FC41FA
:1010800004460D4616466B4606223B216820FFF7B4
:1010900093FF0746BFB99DF801009DF8001040EA94
:1010A000012000B220809DF803009DF8021040EA64
:1010B000012000B228809DF805009DF8041040EA48
:1010C000012000B230803846BDE8FC812DE9F84FA0
:1010D0006B46022241216820FFF76EFF9DF8010058
:1010E0009DF8001040EA01200FFA80FA504606F001
:1010F00025F8804600220B4B05F0C8FE06460A4A3A
:101100000A4B05F01BFE044605F0E6FD8346084940
:10111000584606F061FB044606F0F6FA00B2BDE858
:10112000F88F000000407540A4703D0AD74342404C
:101130000000C84208B540F22551304800F088FF51
:1011400040B12E4800F004FFC0B200900121684673
:1011500002F0BAFE08BD10B586B004460121082091
:1011600000F052FD0121880400F05BFD234800F0EF
:10117000AFFD4FF48060ADF8100003208DF8120031
:1011800018208DF8130004A91D4800F081FA4FF4CF
:101190000060ADF8100004208DF8130004A9184871
:1011A00000F076FA00940020ADF80400ADF80600D7
:1011B000ADF80800ADF80C000C20ADF80A00694647
:1011C0000E4800F0C8FD01210C4800F050FE01223D
:1011D00040F22551094800F056FE27208DF81400F2
:1011E00002208DF8150003208DF8160001208DF8DF
:1011F000170005A800F075FF06B010BD00480040BC
:10120000000C01407FB505460C460121022000F08C
:1012100008FDADF80850ADF804400020ADF80A0014
:10122000ADF8060001A9144801F09AFA012211460E
:10123000114801F00CFE1D208DF8000000208DF8F3
:10124000010003208DF8020001208DF8030068469C
:1012500000F047FF0121084801F0DEFD7FBD10B519
:101260000121054802F0A1F828B10121024802F04D
:10127000ADF802F065FD10BD0004004008B5012185
:10128000442000F0C1FC1C20ADF8000048208DF87F
:1012900003006946354800F0FBF90120ADF8000075
:1012A00028208DF803006946314800F0F1F908BDA7
:1012B00010B5044614B101202E4908702D4800785D
:1012C000002837D01021294800F075FA78B108219C
:1012D000264800F070FA50B10421244800F06BFA5F
:1012E00028B10121224800F066FA012822D10A2003
:1012F00000F07FF800201F49087010211B4800F003
:101300005AFA08B9012010BD0821184800F053FA14
:1013100008B90220F7E70421144800F04CFA08B994
:101320000320F0E70121124800F045FA01281BD103
:101330000420E8E710210D4800F03DFA012813D100
:1013400008210A4800F037FA01280DD10421074886
:1013500000F031FA012807D10121054800F02BFAED
:1013600010B90120034908700020CCE700180140A3
:1013700000080140DC04002010B56FF0040000F00C
:10138000FAFE2E4800682E49B0FBF1F02D49087096
:101390000846007800EB4001C1EBC0104FF6FF712A
:1013A00001EAC0002849088010BD0146254A12788C
:1013B0004A434FF0E0235A6100229A611A461269AB
:1013C00042F001021A6100BF4FF0E022106900F004
:1013D00001021AB100F48032002AF5D04FF0E02269
:1013E000126922F001024FF0E0231A6100229A6193
:1013F00070470146144A12884A434FF0E0235A616D
:1014000000229A611A46126942F001021A6100BF75
:101410004FF0E022106900F001021AB100F48032AE
:10142000002AF5D04FF0E022126922F001024FF0BD
:10143000E0231A6100229A61704700002800002012
:1014400000127A00DE040020E0040020014600BF04
:10145000704700BF4A4A128802F04002002AF9D0C1
:10146000C2B2474B1B1D1A80704710B586B00446A8
:10147000012144F2040000F0C7FB4FF40070ADF806
:10148000140003208DF8160018208DF8170005A908
:101490003C4800F0FDF84FF48060ADF814000420E3
:1014A0008DF8170005A9374800F0F2F825208DF8CF
:1014B000000000208DF8010003208DF802000120BB
:1014C0008DF80300684600F00CFE01940020ADF892
:1014D0000800ADF80A00ADF80C00ADF810000C20C3
:1014E000ADF80E0001A9264800F035FC012240F2BB
:1014F0002551234800F0C7FC0121214800F0B7FC2A
:1015000006B010BD10B540F225511D4800F0A0FDF9
:1015100010B31B4800F01CFDC4B21B48008800F447
:101520000040C8B91848008800F4804060B10A2C17
:1015300003D000201449088020E01348008840F4BC
:1015400000401149088019E00D2C06D10E48008892
:1015500040F480400C49088010E00B480088C0F33C
:101560000D000A490C5408480088401C06490880B0
:1015700008460088C72801DD0020088010BD000053
:101580000038014000080140E80400202005002048
:101590000948804709480047FEE7FEE7FEE7FEE707
:1015A000FEE7FEE7FEE7FEE7FEE7FEE70448054943
:1015B000054A064B704700002F060008310100085D
:1015C00088070020880D0020880900208809002055
:1015D00010B50446CC48844208D10121042000F013
:1015E0002DFB0021042000F029FB46E0C74884427F
:1015F00008D10121082000F021FB0021082000F083
:101600001DFB3AE0C248844208D10121102000F0BD
:1016100015FB0021102000F011FB2EE0BD48844294
:1016200008D10121202000F009FB0021202000F03A
:1016300005FB22E0B848844208D10121402000F097
:10164000FDFA0021402000F0F9FA16E0B348844288
:1016500008D10121802000F0F1FA0021802000F063
:10166000EDFA0AE0AE48844207D10121801500F06E
:10167000E5FA0021A01500F0E1FA10BD10B5012136
:10168000084600F0DBFA0021012000F0D7FA10BD77
:101690002DE9F04102460025002600200023002409
:1016A000002791F803C00CF00F0591F803C00CF06F
:1016B000100CBCF1000F03D091F802C04CEA0505F4
:1016C00091F800C0BCF1000F31D0146800202BE06D
:1016D0004FF0010C0CFA00F3B1F800C00CEA03065D
:1016E0009E4220D183004FF00F0C0CFA03F7BC434D
:1016F00005FA03FC4CEA040491F803C0BCF1280F7E
:1017000006D14FF0010C0CFA00FCC2F814C00AE03C
:1017100091F803C0BCF1480F05D14FF0010C0CFA51
:1017200000FCC2F810C0401C0828D1D31460B1F8E6
:1017300000C0BCF1FF0F34DD546800202EE000F142
:10174000080C4FF0010808FA0CF3B1F800C00CEADD
:1017500003069E4221D183004FF00F0C0CFA03F7D1
:10176000BC4305FA03FC4CEA040491F803C0BCF145
:10177000280F05D100F1080C08FA0CF8C2F8148003
:1017800091F803C0BCF1480F07D100F1080C4FF0ED
:10179000010808FA0CF8C2F81080401C0828CED3C3
:1017A0005460BDE8F0814FF6FF7101800221817025
:1017B0000421C17070470246002093680B400BB1B2
:1017C000012000E0002070470146886880B2704721
:1017D00002460020D3680B400BB1012000E000203E
:1017E00070470146C86880B2704701617047416127
:1017F00070470AB1016100E041617047C160704704
:101800004FF480320A438261816182618269826918
:10181000704702460020434B18684FF6807318400B
:1018200040EA021008433F4B186070473E49C861C8
:101830007047F0B50A46002300240021002500F07F
:101840000046B6F1004F02D1364EF16901E0354E47
:101850007168C0F3034583B200F44016B6F5401F2B
:1018600008D121F070612F4E766826F070662D4FFA
:101870007E6012E000F48016B6F5801F06D10326C4
:1018800006FA05F4A14341F0706106E0460D360109
:1018900003FA06F6B14341F0706122B1460D3601FC
:1018A00003FA06F6314300F00046B6F1004F02D1CC
:1018B0001C4EF16101E01B4E7160F0BD30B500229D
:1018C0008B071C0F0F2303FA04F2164B08338C10FE
:1018D00053F824309343134C08348D1044F82530CA
:1018E00023468C1053F824308C07240F00FA04F49C
:1018F00023430C4C08348D1044F8253030BD0A4980
:10190000DC3108607047000000080140000C014015
:10191000001001400014014000180140001C01406B
:10192000002001400000014000002042DF48006824
:1019300040F00100DD49086008464068DC49084085
:10194000DA49486008460068DA490840D749086023
:101950000846006820F4802008600846406820F4AB
:10196000FE0048604FF41F0088607047CF49096847
:1019700021F48031CD4A11601146096821F480219B
:101980001160B0F5803F03D0B0F5802F0ED106E096
:10199000C649096841F48031C44A116007E0C3496F
:1019A000096841F4A021C14A116000E000BF00BFF6
:1019B000704710B501460022002300204A11012A79
:1019C00002D1BA4C236806E0022A02D1B74C236A3E
:1019D00001E0B64C636A01F01F02012494401C40F0
:1019E0000CB1012000E0002010BD38B500200090AF
:1019F0000024002500BF3120FFF7DBFF05460098DB
:101A0000401C00900098B0F5A06F01D0002DF2D0DE
:101A10003120FFF7CEFF08B1012400E0002420466A
:101A200038BD01460020A14A106820F0F80040EAC5
:101A3000C10010607047A04908607047024600204E
:101A40009A4B586820F47C1042EA01031843974BE4
:101A50005860704798490866704701460020934ACD
:101A6000506820F003000843506070478F4840687A
:101A700000F00C007047014600208C4A506820F0AE
:101A8000F00008435060704701460020874A5068C4
:101A900020F4E06008435060704701460020834A0C
:101AA000506820F4605040EAC1005060704729B18E
:101AB0007E4A527A02437D4B5A7204E07B4A527A44
:101AC00082437A4B5A7270477B49D831086070471D
:101AD00001460020754A506820F440400843506099
:101AE00070470021714A20321170704A82F820102C
:101AF000012802D004280AD104E001216B4A2032D7
:101B0000117005E00521694A2032117000E000BF24
:101B100000BF70476949086070476449096A01431A
:101B2000624A11627047654944390860704730B5B0
:101B300000210022002400235C4D6D6805F00C019B
:101B400021B1042905D0082923D105E05C4D0560A9
:101B500022E05B4D05601FE0544D6D6805F4701286
:101B6000524D6D6805F48034022505EB92421CB994
:101B7000544D554305600BE04C4D6D6805F4003540
:101B80001DB1504D5543056002E04D4D5543056074
:101B900002E04B4D056000BF00BF444D6D6805F08D
:101BA000F0010909484D6B5C0568DD4045603F4D1B
:101BB0006D6805F4E061090A434D6B5C4568DD40E2
:101BC00085603A4D6D6805F46051C90A3E4D6B5C05
:101BD0004568DD40C560354D6D6805F44041890BB1
:101BE0003A4D6B5CC568B5FBF3F5056130BD29B1B5
:101BF0002E4A526902432D4B5A6104E02B4A526926
:101C000082432A4B5A61704729B1284A926902439C
:101C1000264B9A6104E0254A92698243234B9A61DC
:101C2000704729B1214AD2690243204BDA6104E0AE
:101C30001E4AD26982431D4BDA61704729B11B4AA3
:101C4000D2680243194BDA6004E0184AD268824332
:101C5000164BDA60704729B1144A12690243134BDC
:101C60001A6104E0114A12698243104B1A617047ED
:101C700012494039086070470F49C86470470B49E2
:101C8000C87170470948406A40F08070074948624F
:101C9000704701460020054A92680A400AB10120B7
:101CA00000E0002070470149887270470010024030
:101CB0000000FFF8FFFFF6FE0000424280044242AF
:101CC00000127A0000093D00EA040020FA04002016
:101CD00010B50446FB48844209D101218803FFF76F
:101CE000ADFF00214FF48040FFF7A8FF32E0F64837
:101CF000844209D101214804FFF7ADFF00214FF4D0
:101D00000030FFF7A8FF25E0F048844209D1012107
:101D10008804FFF7A0FF00214FF48020FFF79BFF0E
:101D200018E0EB48844209D10121C804FFF793FF72
:101D300000214FF40020FFF78EFF0BE0E5488442BE
:101D400008D101210805FFF786FF00214FF480101C
:101D5000FFF781FF10BD2DE9F04786B005460E461E
:101D60000024A24600BFA1460027B08900B100BFF1
:101D70002F462C8A4CF6FF700440F08804432C82D6
:101D8000AC894EF6F3100440B0883189084371895C
:101D900008430443AC81AC8A4FF6FF400440B0894D
:101DA0000443AC8201A8FFF7C2FEC648874202D1B5
:101DB000DDF810A001E0DDF80CA0A88900F40040D7
:101DC00040B10AEBCA0000EB0A1031684900B0FBD1
:101DD000F1F807E00AEBCA0000EB0A10316889004D
:101DE000B0FBF1F86420B8FBF0F004012009642195
:101DF00001FB1089A88900F4004040B1322000EBBB
:101E0000C900B0FBF1F000F00700044308E0322005
:101E100000EB09106421B0FBF1F000F00F00044367
:101E20002C8106B0BDE8F0874FF416510160002107
:101E30008180C18001810C21418100218181704715
:101E400010B502460020108A4FF2FF0318400B889D
:101E50004C8823438C882343CC8823431843108227
:101E600010BD0021018041808180C180704721B177
:101E7000828942F40052828104E082894DF6FF7328
:101E80001A4082817047F0B50346002400260025E1
:101E9000002040F66A17B94200D100BF1846C1F3CE
:101EA000421401F01F06012707FA06F5012C01D1A3
:101EB0000C3004E0022C01D1103000E014301AB1D3
:101EC00007682F43076002E00768AF430760F0BD73
:101ED0001AB1838A0B43838202E0838A8B43838215
:101EE0007047028A4FF6F0731A400282028A0A4350
:101EF0000282704782894FF2FF731A408281828981
:101F00000A438281704721B1828942F002028281B4
:101F100004E082894FF6FD731A4082817047028A7D
:101F20004FF6DF731A400282028A0A430282704728
:101F300021B1028A42F48042028204E0028A4BF616
:101F4000FF731A4002827047C1F308028280704713
:101F500001468888C0F308007047818941F001017B
:101F600081817047028BD2B20283028B42EA012246
:101F700002837047028B02F47F420283028B0A4382
:101F80000283704721B1828A42F02002828204E0FB
:101F9000828A4FF6DF731A408282704721B1828AAB
:101FA00042F01002828204E0828A4FF6EF731A40F8
:101FB0008282704721B1828A42F00802828204E064
:101FC000828A4FF6F7731A408282704721B1828964
:101FD00042F40042828103E08289C2F30E028281D0
:101FE000704721B1828A42F40062828204E0828AD0
:101FF0004FF2FF731A4082827047828A4FF6FB735A
:102000001A408282828A0A438282704721B1828A80
:1020100042F00202828204E0828A4FF6FD731A4087
:102020008282704702460020B1F5007F00D100BFD8
:1020300013880B400BB1012000E00020704701F431
:102040000072B2F5007F00D100BFCA430280704722
:1020500070B50246002400230025002040F66A16D1
:10206000B14200D100BFC1F3421501F01F030126A8
:1020700006FA03F3012D02D19689334006E0022DC2
:1020800002D1168A334001E0968A33400C120126B1
:1020900006FA04F41688344013B10CB1012000E0B4
:1020A000002070BD10B50022002340F66A14A14242
:1020B00000D100BF0A1201249440A3B2DC43048083
:1020C00010BD0000003801400044004000480040BE
:1020D000004C00400050004031490143314A11603A
:1020E000704770B5002100230F22C47804B32D4C33
:1020F000246804F4E064C4F5E064210AC1F1040337
:10210000CA40447804FA03F1847814402143090159
:10211000254C0678A155047804F01F050124AC4035
:1021200005786D11AD0005F1E025C5F8004109E025
:10213000047804F01F050124AC401C4D067876118C
:1021400045F8264070BD1A4A0A400243154B1B1F32
:102150001A60704739B1134A121D12680243114BBD
:102160001B1D1A6006E00F4A121D126882430D4BB8
:102170001B1D1A607047042808D14FF0E02109693F
:1021800041F004014FF0E022116107E04FF0E0213F
:10219000096921F004014FF0E0221161704700004D
:1021A0000000FA050CED00E000E400E080E100E052
:1021B00080FFFF1F10B50446F748844209D1012172
:1021C0004805FFF748FD00214FF40010FFF743FDDD
:1021D00008E001218805FFF73EFD00214FF4800053
:1021E000FFF739FD10BD2DE9F04385B004460D46DB
:1021F0000026B1460427DFF8A483A6884FF6C070F6
:1022000006406846FFF793FCDDF80880E448B8FB19
:10221000F0F01FFA80F946EA0906A68020884FF6FA
:10222000FE71084020800026DE49286888420CD8CC
:1022300028684000B8FBF0F087B2042F00DA0427CA
:102240003E4309F10100208427E0E8884BF6FF7146
:10225000884206D1286800EB4000B8FBF0F087B256
:1022600009E0286800EBC00101EB0010B8FBF0F0BA
:1022700087B247F48047C7F30B0008B947F001075E
:1022800047F4004006434FF4967009FB00F04FF40A
:102290007A7190FBF1F0401C2084A683208840F0E6
:1022A0000100208026884FF6F5300640A88869890D
:1022B000084306432680A88929890843208105B060
:1022C000BDE8F08341F288310160002181804BF646
:1022D000FF71C1800021018141814FF480418181E2
:1022E000704721B1028842F00102028004E00288B6
:1022F0004FF6FE731A400280704721B1828842F483
:102300000062828004E082884FF2FF731A4082806C
:10231000704721B1828842F48052828004E0828832
:102320004EF6FF731A408280704721B1028842F452
:102330008072028004E002884FF6FF631A40028038
:10234000704721B1028842F40072028004E00288E2
:102350004FF6FF531A400280704721B1028842F4C1
:102360008062028004E002884FF6FF331A40028048
:1023700070470A46002181894FF60173194002F027
:10238000FE0319438181704721B1828942F0010225
:10239000828104E082894FF6FE731A408281704781
:1023A00021B1028842F04002028004E002884FF628
:1023B000BF731A40028070471AB183880B43838031
:1023C00002E083888B438380704701827047014617
:1023D000088AC0B2704712B141F0010102E04FF625
:1023E000FE7319400182704708B502460020009034
:1023F00000920098084400900098008808BD21B120
:10240000028842F40042028003E00288C2F30E0216
:1024100002807047B1F5006F04D1028842F4006277
:10242000028004E002884FF2FF731A400280704776
:10243000B1F5005F04D1028842F40052028004E04A
:1024400002884DF6FF731A400280704721B102885E
:1024500042F48052028004E002884EF6FF731A4074
:1024600002807047B1F5006F04D1028842F4006227
:10247000028004E002884FF2FF731A400280704726
:1024800021B1028842F02002028004E002884FF667
:10249000DF731A40028070470146088B00127047B4
:1024A00021B1028842F01002028004E002884FF657
:1024B000EF731A400280704721B9028842F080020F
:1024C000028004E002884FF67F731A400280704752
:1024D000B1F5804F05D0828B4BF6FF731A40828393
:1024E00003E0828B42F480428283704770B50246DB
:1024F0000024002500230020958A138B1B0445EA45
:10250000030626F07F4404EA01068E4201D1012031
:1025100000E0002070BD10B501460020002300221D
:102520008B8A0A8B120443EA020424F07F4010BD18
:102530000CB50246002000230193009300920B0F7C
:10254000019321F07F41019B1BB1009B1433009349
:1025500003E0090C009B18330093009B1B680B40A1
:102560000BB1012000E000200CBD002221F07F42D1
:10257000D3438382704730B50246002000239488FD
:1025800001F0E06504EA154321F07F41948A0C4094
:1025900054B14BB1012008E00054004000127A0011
:1025A00040420F00A0860100002030BD002221F033
:1025B0007F42D3438382704710B50446FE4884426D
:1025C00008D10121C014FFF739FB0021E014FFF707
:1025D00035FBC4E0B4F1804F08D101210846FFF774
:1025E0003AFB00210120FFF736FBB8E0F3488442B4
:1025F00008D101210220FFF72EFB00210220FFF766
:102600002AFBACE0EE48844208D101210420FFF708
:1026100022FB00210420FFF71EFBA0E0E9488442D2
:1026200008D101210820FFF716FB00210820FFF741
:1026300012FB94E0E448844208D101211020FFF706
:102640000AFB00211020FFF706FB88E0DF488442E8
:1026500008D101212020FFF7FEFA00212020FFF7FA
:10266000FAFA7CE0DA48844208D101214014FFF7ED
:10267000E5FA00216014FFF7E1FA70E0D5488442E2
:1026800009D10121C804FFF7D9FA00214FF4002035
:10269000FFF7D4FA63E0D048844209D1012108054C
:1026A000FFF7CCFA00214FF48010FFF7C7FA56E08D
:1026B000CA48844209D101214805FFF7BFFA002129
:1026C0004FF40010FFF7BAFA49E0C548844208D138
:1026D00001214020FFF7BFFA00214020FFF7BBFA9D
:1026E0003DE0C048844208D101218020FFF7B3FAC1
:1026F00000218020FFF7AFFA31E0BB48844208D1C7
:1027000001218015FFF7A7FA0021A015FFF7A3FA12
:1027100025E0B648844209D101210804FFF78EFA6A
:1027200000214FF48030FFF789FA18E0B048844266
:1027300009D101214804FFF781FA00214FF400304C
:10274000FFF77CFA0BE0AB48844208D101218804F2
:10275000FFF774FA00214FF48020FFF76FFA10BDE5
:1027600000220288944B98420ED0994B98420BD08D
:10277000B0F1804F08D0914B984205D0904B9842D1
:1027800002D0904B984204D14FF68F731A404B8879
:102790001A438D4B984207D08C4B984204D04FF689
:1027A000FF431A40CB881A4302808B8883850B88AD
:1027B0000385814B98420BD0854B984208D08B4BB8
:1027C000984205D08A4B984202D08A4B984201D158
:1027D0000B7A038601238382704770B500240022A0
:1027E0000023058C4FF6FE7635400584028C8388E5
:1027F000048B4FF68F752C40B51E2C400D882C4352
:10280000751E2A400D892A434D882A436A4DA842E5
:102810000BD06F4DA84208D0744DA84205D0744D1E
:10282000A84202D0734DA84213D14FF6F7752A4043
:102830004D892A434FF6FB752A408D882A434FF66F
:10284000FF652B404FF6FF552B408D892B43CD89DB
:102850002B4383800483CD888586028470BD70B548
:10286000002400220023058C4FF6EF7635400584C6
:10287000028C8388048B48F6FF752C404FF6FF4589
:102880002C400D884FF6FF7606EA05252C434FF6BF
:10289000DF752A400D8906EA05152A434D8806EAA8
:1028A00005152A43444DA84202D0494DA8421DD1E6
:1028B0004FF67F752A404D894FF6FF7606EA0515DB
:1028C0002A434FF6BF752A408D8806EA05152A432C
:1028D0004FF6FF352B404FF2FF752B408D8906EAEE
:1028E00085052B43CD8906EA85052B438380048328
:1028F000CD880587028470BD70B5002400220023B6
:10290000058C4FF6FF6635400584028C8388848BE6
:102910004FF68F752C404FF6FC752C400D882C43DC
:102920004FF6FF552A400D894FF6FF7606EA05253A
:102930002A434D8806EA05252A431F4DA84202D0A6
:10294000234DA8421DD14FF2FF752A404D894FF605
:10295000FF7606EA05252A434FF6FF352A408D8883
:1029600006EA05252A434EF6FF752B404DF6FF7506
:102970002B408D8906EA05152B43CD8906EA0515FE
:102980002B4383808483CD888587028470BD70B596
:10299000002200230024058C4EF6FF763540058486
:1029A000038C8488828B48F6FF752A404FF6FF45DA
:1029B0002A400D8820E00000002C01400004004067
:1029C00000080040000C00400010004000140040CF
:1029D00000340140004C01400050014000540140CF
:1029E00000180040001C0040002000400040014052
:1029F00000440140004801404FF6FF7606EA0525F5
:102A00002A434DF6FF752B400D8906EA05352B4309
:102A10004D8806EA05352B43FA4DA84202D0FA4DFF
:102A2000A84208D14BF6FF752C408D894FF6FF76F2
:102A300006EA85152C4384808283CD88A0F8405017
:102A4000038470BD828B4FF2FF331A408283828BE6
:102A50004FF6FF7303EA01231A4382837047F0B5F0
:102A60000C461546002200210026078C4EF6FF7CFE
:102A700007EA0C070784828B018C4FF6FF7707EA81
:102A8000043640F6FF473A404FF6FF7707EA05273E
:102A90003A434FF6FF7707EA03373A43D94FB84234
:102AA0000ED0D94FB8420BD0B0F1804F08D0D74FDD
:102AB000B84205D0D64FB84202D0D64FB84206D160
:102AC0004DF6FF77394046F48057394305E047F625
:102AD000FF57394044F48057394382830184F0BD65
:102AE000828B4FF6F3731A408283828B0A43828370
:102AF0007047F0B50C461546002200210026078CD1
:102B00004FF6FF6C07EA0C070784828B018C4FF6A7
:102B1000FF7707EA04264FF60C773A404FF6FF7727
:102B200007EA03172F433A43B64FB8420ED0B64FC9
:102B3000B8420BD0B0F1804F08D0B44FB84205D0A6
:102B4000B34FB84202D0B34FB84206D14FF6FF5749
:102B5000394046F48077394305E04FF2FF5739405A
:102B600044F48077394382830184F0BD028B4FF2B5
:102B7000FF331A400283028B4FF6FF7303EA0123EF
:102B80001A4302837047F0B50C4615460022002117
:102B90000026078C4FF6EF7C07EA0C070784028BB0
:102BA000018C4FF6FF7707EA041640F6FF473A40DC
:102BB0004FF6FF7707EA03373A434FF6FF7707EA06
:102BC00005273A438F4FB8420ED08F4FB8420BD0F3
:102BD000B0F1804F08D08D4FB84205D08C4FB8422D
:102BE00002D08C4FB84206D14FF6DF77394046F01D
:102BF0001007394305E04FF65F77394044F010077E
:102C0000394302830184F0BD028B4FF6F3731A40FF
:102C10000283028B0A4302837047F0B50C461546C7
:102C200000220021068C4FF6FE773E400684028B80
:102C3000018C4FF60C7632407E1C06EA03162E43BA
:102C40003243704EB0420ED06F4EB0420BD0B0F156
:102C5000804F08D06D4EB04205D06D4EB04202D0CC
:102C60006C4EB04206D14FF6FD76314044F001067D
:102C7000314305E04FF6F576314044F0010631432B
:102C800002830184F0BD70B505460C465D4885425F
:102C90000ED05D4885420BD0B5F1804F08D05B481F
:102CA000854205D05A48854202D05A48854200D113
:102CB00000E000BF208850B92389A2886188284697
:102CC000FFF7ABFFE1882846FFF79EFF25E020884D
:102CD00004280AD12389A28861882846FFF753FF78
:102CE000E1882846FFF742FF17E0208808280AD12C
:102CF0002389A28861882846FFF7FBFEE1882846E1
:102D0000FFF7EEFE09E02389A28861882846FFF7D5
:102D1000A6FEE1882846FFF795FE70BD2DE9F0413B
:102D200005460C4600260127608808B9022600E007
:102D30000026A088012801D1022700E00127208871
:102D4000A0B92389A28861882846FFF766FFE18839
:102D50002846FFF759FF23893A4631462846FFF7B0
:102D600012FFE1882846FFF701FF13E02389A288BC
:102D700061882846FFF707FFE1882846FFF7F6FE3F
:102D800023893A4631462846FFF747FFE18828461F
:102D9000FFF73AFFBDE8F0810A884B881A438B8819
:102DA0001A43CB881A430B891A434B891A438B89E0
:102DB0001A43A0F8442070474FF6FF71818000212C
:102DC0000180C180418001727047002101804180F3
:102DD0008180C180018141818181C1817047002151
:102DE00001804180012181800021C18001817047E3
:102DF0000021018041808180C180018141818181E8
:102E000070470000002C01400034014000040040E5
:102E100000080040000C004021B1028842F001028D
:102E2000028004E002884FF6FE731A400280704769
:102E300031B1B0F8442042F40042A0F8442005E04B
:102E4000B0F84420C2F30E02A0F8442070471AB133
:102E500083890B43838102E083898B43838170479D
:102E60008182704741EA0203A0F8483070471AB1E6
:102E700083890B43838102E083898B43838170477D
:102E800001894FF6F8721140018170470A4600210E
:102E900001894FF68F73194011430181704730B596
:102EA00004460D4629462046FFF7F0FF208940F0F2
:102EB0000700208130BD2DE9F04104460D4616463D
:102EC0001F46602D06D13B46012231462046FFF7C2
:102ED0005AFE05E03B46012231462046FFF79DFEA3
:102EE00029462046FFF7D2FF208940F007002081C5
:102EF000BDE8F08130B50C4600210189C9B24FF61A
:102F0000FF7505EA0325154325432943018130BD9B
:102F10002DE9F04105460E461746984600244346E3
:102F20003A4631462846FFF7E5FF2C894FF6F87000
:102F3000044044F007044FF68F70044044F07004DE
:102F40002C81BDE8F081F0B504460D4616461F46BB
:102F50003B46324629462046FFF7CCFF208940F405
:102F600080402081F0BD0185828270470A460021A1
:102F700001884FF68F731940114301807047F0B5F7
:102F80000C4615461E460021002200230189028BB3
:102F9000038C4FF6F877394021434FF6FC473A400F
:102FA00040F201173A434FF6DD773B404FF6FF778B
:102FB00007EA06172F433B43018102830384F0BDD8
:102FC0000A460021018B4FF68F731940114301838C
:102FD00070470A460021018B48F6FF7319404FF6EF
:102FE000FF7303EA02231943018370470A46002155
:102FF000818B4FF68F7319401143818370470A46C6
:103000000021818B48F6FF7319404FF6FF7303EAE6
:10301000022319438183704721B1028842F0800264
:10302000028004E002884FF67F731A4002807047E6
:1030300021B1828842F00402828004E082884FF647
:10304000FB731A408280704721B1828842F00802E7
:10305000828004E082884FF6F7731A4082807047BE
:1030600021B1828842F00102828004E082884FF61A
:10307000FE731A40828070470A460021018B4FF68A
:10308000F77319401143018370470A460021018BF1
:103090004FF2FF7319404FF6FF7303EA02231943FF
:1030A000018370470A460021818B4FF6F773194060
:1030B0001143818370470A460021818B4FF2FF73D1
:1030C00019404FF6FF7303EA0223194381837047C7
:1030D0000A460021018B4FF6FB731940114301830F
:1030E00070470A460021018B4FF6FF3319404FF617
:1030F000FF7303EA02231943018370470A46002144
:10310000818B4FF6FB7319401143818370470A4648
:103110000021818B4FF6FF3319404FF6FF7303EA0E
:1031200002231943818370470A460021018B4FF621
:103130007F7319401143018370470A460021018BB8
:10314000C1F30E014FF6FF7303EA02231943018313
:1031500070470A460021818B4FF67F731940114357
:10316000818370470A460021818BC1F30E014FF61F
:10317000FF7303EA02231943818370470A46002143
:10318000018C4FF6FD7319401143018470470A46C4
:103190000021018C4FF6F7731940114301847047E9
:1031A0000A460021018C4FF6DF7319404FF6FF737A
:1031B00003EA02131943018470470A460021018C77
:1031C0004FF67F7319404FF6FF7303EA021319435A
:1031D000018470470A460021018C4FF6FF531940C5
:1031E0004FF6FF7303EA02231943018470470A462E
:1031F0000021018C4FF2FF7319404FF6FF7303EA71
:1032000002231943018470470A460021018C4DF6C0
:10321000FF7319404FF6FF7303EA02331943018429
:10322000704730B5002301248C40A3B2048C9C432A
:103230000484048C02FA01F5ADB22C43048430BD41
:1032400030B5002304248C40A3B2048C9C43048436
:10325000048C02FA01F5ADB22C43048430BD70B584
:103260000346002000241846183001258D40ACB2DA
:103270001D8CA5431D8409B1082909D100EB61000B
:10328000056825F0700505600568154305600EE0CA
:103290000D1FC5F34E052844056825F4E04505607B
:1032A00005684FF6FF7606EA02263543056070BDD5
:1032B00021B1028842F00202028004E002884FF647
:1032C000FD731A400280704721B1028842F0040267
:1032D000028004E002884FF6FB731A4002807047B8
:1032E00021B1828842F08002828004E082884FF619
:1032F0007F731A408280704702884FF6F7731A4036
:10330000028002880A430280704782884FF68F73DA
:103310001A40828082880A438280704702894FF671
:10332000F8731A40028102890A43028170470289B8
:103330004FF67F731A40028102890A430281704767
:103340008184704781857047818670470187704707
:1033500081877047A0F84010704702884FF6FF43FE
:103360001A40028002880A43028070470146888E14
:1033700070470146088F70470146888F70470146A5
:10338000B1F8400070470146888C70470146088DAF
:10339000704702460020138A0B400BB1012000E069
:1033A00000207047CA430282704730B502460020B1
:1033B00000230024158A05EA0103958905EA010422
:1033C00013B10CB1012000E0002030BDCA430282DD
:1033D0007047000010B502460024002302B109B96D
:1033E000002010BD022303E0D05C2044C4B25B1C6B
:1033F000481E9842F8D82046F3E701B581B0002076
:103400000090694601AA5078087010784870BDF89D
:1034100000000CBD0146080601F47F4240EA02208C
:1034200001F47F0240EA122040EA1160704710B5B3
:10343000024600230024302A05DB392A03DCA2F1EE
:103440003000C3B20EE0412A05DB462A03DCA2F1BC
:103450003700C3B206E0612A04DB662A02DCA2F16F
:103460005700C3B2302905DB392903DCA1F1300054
:10347000C4B20EE0412905DB462903DCA1F1370087
:10348000C4B206E0612904DB662902DCA1F1570021
:10349000C4B204EB0310C0B210BD70B504460025E1
:1034A0000026204602F02CFB06460CB9681E70BDB3
:1034B000002505E0605D302801D00020F7E76D1C95
:1034C000B542F7D30120F2E72DE9F043034600BFF0
:1034D0000025002400260027012901D002290DD152
:1034E000A3F1010C4FF06408BCFBF8F4BCFBF8F945
:1034F00008FB19C501F10C06174609E04FF0640CF2
:10350000B3FBFCF4B3FBFCF80CFB18350E46174676
:1035100006F1010C4FF01A080CFB08FC4FF00A08EA
:10352000BCFBF8FC05EB950808EB94084FF002098A
:1035300009FB1488C444BC44ACF10100002806DB3C
:103540004FF0070C90FBFCF80CFB180C07E04FF059
:10355000070C90FBFCF80CFB180C0CF1070C6046F8
:10356000BDE8F08301460A46C81701EB9070801051
:10357000A1EB800070B9642091FBF0F300FB131005
:1035800030B94FF4C87091FBF0F300FB131008B989
:10359000012070470020FCE710B504462046FFF7E5
:1035A000E1FF10B14FF4B77010BD40F26D10FBE7B2
:1035B0002DE9F04190B080460E4640F2B2753022BF
:1035C000684901A802F000FB344604F5E14400BF5D
:1035D00011E02846FFF7E0FF074640F2A3207843BA
:1035E000B4EBC01F06D340F2A3207843A4EBC01471
:1035F0006D1C00E001E0002CEBD100BFA8B2ADF8DB
:103600003400002518E0BDF83400FFF7ABFF08B127
:103610001D20029001A850F8250040F2A321484344
:10362000B4EBC01F07D301A850F825004843A4EB12
:10363000C0146D1C00E001E0002CE4D100BF1C2090
:103640000290681CC0B28DF83600012506E046489D
:10365000844202D3241A6D1C00E001E0002CF6D154
:1036600000BFE8B28DF837004FF46160B4FBF0F0B2
:10367000C0B28DF838004FF46160B4FBF0F100FB8C
:1036800011403C21B0FBF1F0C0B28DF839003C2074
:10369000B4FBF0F100FB11408DF83A00CDF83B602F
:1036A0000D98C8F800000E98C8F80400BDF83C005A
:1036B000A8F808009DF83E0088F80A0010B0BDE8A0
:1036C000F0812DE9F05F80460E46914600241CE013
:1036D00016F814A06000401C16F800B0504602F026
:1036E000C8F83038C5B2092D01DDE81FC5B258460B
:1036F00002F0BFF83038C7B2092F01DDF81FC7B29A
:1037000007EB051008F80400641C4C45E0DBBDE83D
:10371000F09FF0B5034600201EE00E5CF71706EBA5
:1037200017773F1107F130050E5CF71706EB177797
:103730003F11A6EB07173037FCB2392D01DDEE1D26
:10374000F5B2392C01DDE61DF4B203F81050012664
:1037500006EB40069C55401C9042DEDB002603F839
:103760001260F0BD788200088051010030B5024639
:103770000B460021002400250AB9481E30BD002157
:1037800008E0545C581A401E155C5554581A401EE7
:103790001454491CB1EB530FF3D30020EEE710B5DE
:1037A00003460020541AB4FBF3F010BD10B50346D5
:1037B000002002FB031010BD2DE9F04704460E4621
:1037C000154600273146284604F0D2F881462146A6
:1037D00003F0A4FE804603F0B3FF07463846BDE879
:1037E000F0872DE9F04704460E4615460027284687
:1037F00003F0DEFF8146214603F0EEFF80463146AE
:1038000003F01EFE07463846BDE8F087024612B1B7
:1038100002F0070028B9082901D8002070470120CC
:10382000FCE702F00700C0F10800884201D3002045
:10383000F4E70120F2E72DE9F047054688461446F3
:103840001E464FF00009CA460027002314B9581E2F
:10385000BDE8F087EB0841462846FFF7D7FF07464B
:103860003FB9E05C05F0070106FA01F10843E054B6
:103870001DE0012F1BD1F0B205F00701C1F10801D5
:1038800040FA01F905F00700C0F10801FF200841E6
:1038900000EA060A581C205C40EA0900591C6054E2
:1038A000E05C05F007010AFA01F10843E05400204A
:1038B000CEE72DE9F04F8FB004460F4690461D46E7
:1038C0000026B246B146B34600200E90B8F1000F74
:1038D00000D025B94FF0FF300FB0BDE8F08F4FEAB0
:1038E000D4092A46414601A802F029F9012D09D937
:1038F000294601A8FFF73AFFB0F1FF3F02D14FF090
:10390000FF30E9E739462046FFF780FF8246BAF1EB
:10391000000F0CD101A810F8090004F007010841BC
:10392000C7F10802FF2111410840064321E0BAF126
:10393000010F1ED101A909F10100085C04F0070183
:10394000C1F10801791AC1F10802FF21114100EA11
:10395000010B01A810F8090004F0070108410E90BE
:1039600004F00700C0F108010BFA01F006430E98BD
:1039700006433046B0E72DE9F04F8FB005460C46C0
:1039800016469946189F4FF0000AD34600200E9025
:103990008046B9F1000F00D027B94FF0FF300FB0CB
:1039A000BDE8F08F3A46494601A802F0C8F8012F59
:1039B00009D9394601A8FFF7D9FEB0F1FF3F02D17E
:1039C0004FF0FF30EBE731462046FFF71FFF8246FE
:1039D000BAF1000F0CD101A8405D04F007010841C5
:1039E000C6F10802FF211141084040EA080821E021
:1039F000BAF1010F1ED101A9681C085C04F007018F
:103A0000C1F10801711AC1F10802FF21114100EA58
:103A1000010B01A8405D04F0070108410E9004F07D
:103A20000700C0F108010BFA01F040EA08080E98FF
:103A300048EA00084046B2E72DE9F04704460D4643
:103A40001746089E4FF00009CA46C8461BB94FF0FA
:103A5000FF30BDE8F08739462846FFF7D7FE80469D
:103A6000B8F1000F07D1185D05F0070106FA01F162
:103A7000084318551EE0B8F1010F1BD1F0B205F054
:103A80000701C1F1080140FA01F905F00700C0F192
:103A90000801FF20084100EA060A601C185C40EAA1
:103AA0000900611C5854185D05F007010AFA01F17C
:103AB000084318550020CCE7014611B94FF0FF30FC
:103AC0007047C8684860C86888600020F8E7014609
:103AD00011B94FF0FF3070470020C860486088601F
:103AE000086000BFF7E7014611B94FF0FF3070479B
:103AF0000868FCE700B5024612B94FF0FF3000BD80
:103B000050689168884201D10020F8E750689168B8
:103B1000884203D290685168401AF0E71046FFF7D8
:103B2000E2FF51689368C91A401AE8E730B50446C5
:103B300014B94FF0FF3030BD2046FFF7D4FF0546E3
:103B40002046FFF7D7FF281AF5E72DE9F041044694
:103B50000F461646002514B9681EBDE8F08117B956
:103B60004FF0FF30F9E76068A168884214D2204620
:103B7000FFF7C0FFB04201D9304602E02046FFF710
:103B8000B9FF054661682A46384601F0D8FF6068EB
:103B9000284460602846E0E72046FFF7A4FF6168FC
:103BA000E268891A401AB0420AD9354661682A4645
:103BB000384601F0C4FF6068284460602846CCE7BE
:103BC0002046FFF790FF6168E268891A451A61682C
:103BD0002A46384601F0B3FFE0686060721B79192D
:103BE0002046FFF7B2FF05442846B6E72DE9F0412D
:103BF00004460F461546002604B11FB94FF0FF30AA
:103C0000BDE8F0812046FFF791FFA84202D86FF08F
:103C10000100F5E76068A16888422AD82046FFF7CE
:103C200062FFA168E268891A461AB54213D8A068F3
:103C30002A46394601F083FFA0682844A060204648
:103C4000FFF751FFE1680844A168884201D1E068AC
:103C5000A0602846D4E7A0683246394601F06FFFDD
:103C6000E068A060AA1BB9192046FFF7BFFF3044E7
:103C7000C6E7A0682A46394601F061FFA0682844DB
:103C8000A0602846BCE700002DE9FF5F06460D4610
:103C900093460027A846A9462C46AA4606B125B950
:103CA0004FF0FF3004B0BDE8F09F00273EE0701CED
:103CB000C05D112836D2DFE800F0090A0B35350C5B
:103CC0000D0E0F35353535101A2916002BE02AE078
:103CD00029E028E027E026E025E099F800104BA035
:103CE00001F0D6FD1FE04CA001F0D2FD1BE0A17950
:103CF00062792379A068CDE90032CDE90210E3783A
:103D0000A278218849A001F0C3FD0CE052A001F087
:103D1000BFFD56A001F0BCFD9AF8001057A001F0BD
:103D2000B7FD00E000BF00BF781CC7B23078B842D2
:103D3000BDDC0020B6E756480021016041607047B5
:103D400054480068401C5349086070475148006857
:103D50007047012080F3138800BF00BF4E48006801
:103D600000F4E0604D490843001D4B490860BFF373
:103D70004F8F00BF00BFFEE7F8B505460E4648A0CE
:103D80000068009000240DB9601EF8BD00241BE0FF
:103D9000295D4448FEF7D8F800BF40214148FEF7AE
:103DA00041F90028F9D0022C0DD3285DFF280AD153
:103DB00055213C48FEF7C8F800BF40213948FEF7BE
:103DC00031F90028F9D0641CB442E1D3FFF7BEFFFB
:103DD00007463246394634A001F05AFD00240DE072
:103DE000295D36A001F054FD022C06D3285DFF2882
:103DF00003D1552131A001F04BFD641CB442EFD337
:103E000030A001F045FD3046BFE700005253534952
:103E10002025640A000000005452414E5350415284
:103E2000454E545F44415441200A000057494649D9
:103E30005F4E5450203A205B25642D25642D256467
:103E400020253032643A253032643A253032645DC0
:103E50005B25645D200A00004D4F44554C452049C8
:103E60004E464F202E2E2E0A0000000057494620B5
:103E70004D4F44554C45202E2E2E0A006D6F647513
:103E80006C6554797065203A205B25645D200A00DA
:103E900005050020000500200CED00E00000FA05FB
:103EA00055000000004800404D43553257694669AF
:103EB0005B2534643A2534645D3A2000253032783D
:103EC000200000000A00000070B504460D460026E0
:103ED00024B9F2A001F0DCFC701E70BD2A46214618
:103EE000F648FFF783FE0646AE4205D0F4A001F087
:103EF000CFFC4FF0FF30F0E73046EEE710B5044658
:103F00002CB9F6A001F0C4FC4FF0FF3010BD00202A
:103F100020606060FF20207060700020F6E770B5C0
:103F200004460D462CB9F8A001F0B2FC4FF0FF306A
:103F300070BD1E21FA4801F079FE2A462146F84854
:103F4000801C01F0FCFDF6483938A0F851500121E1
:103F500080F83A10FFF7FAFEF1493939C1F85300F9
:103F60000020E5E72DE9F04104460D460026002734
:103F700004B135B9EBA001F08BFC4FF0FF30BDE888
:103F8000F081FFF7E3FE07462168286803F088FB0D
:103F90000AD0EE480068381A41F27071884203D3A3
:103FA000EBA001F075FC01266168686803F078FBFE
:103FB0000AD0E6480068381A41F27071884203D38B
:103FC000E9A001F065FC0126012E03D1FFF7BEFE3A
:103FD000DE4908603046D2E770B504460D4604B1AC
:103FE0002DB9E7A001F054FC4FF0FF3070BD2268FE
:103FF000EF49F048FFF7E0FB28706268EC49ED48B4
:10400000FFF7DAFB68700020F0E72DE9F047804603
:104010000C4617461D46089E94F800900CB105B159
:1040200036B9E5A001F034FC4FF0FF30BDE8F08771
:10403000B8F1000F49D11221B9481E3001F0F6FD48
:10404000B9F1010F06D0B9F1020F07D0B9F1050F90
:1040500039D118E000250020306035E0B0496631E4
:1040600001F10A00FFF7B8FF48B9AD483938B0F898
:104070009F00A5F8010003202870306002E04FF097
:10408000FF30D3E720E07A1E611CA548223801F0FA
:1040900056FD781EA2493939C1F82D001021A048DB
:1040A000393890F8572058308154583890F85700D4
:1040B000401C9B49393981F85700032008700025BE
:1040C0000020306000E000BF00BF0020AEE72DE917
:1040D000F04F8DB006468B461746994600200C904F
:1040E00082468046002501ACBBF1000F06D1BEA080
:1040F00001F0CEFB681E0DB0BDE8F08FB9F1010FE5
:1041000006D196F8088008F10600384485B201E02F
:10411000781D85B22B4642463946B9A001F0B8FB5E
:10412000FF2004F8010B04F8010B281204F8010B1E
:1041300004F8015B3079401C04F8010B707904F835
:10414000010B002004F8010B04F8019B4FF0080A52
:10415000B9F1010F0DD104F8018B0AF1010A01A98F
:1041600001EB0A00424606F1090101F0E8FCC244F5
:10417000444437B101A901EB0A003A46594601F01F
:10418000DEFC291D01A8FFF725F90146E81C01AA5C
:104190001154291D01A8FFF7EFFD0C900C98002881
:1041A00006DAA1A00C9901F073FB6FF00100A2E701
:1041B0000020A0E7FEB505460E461746002426B9A6
:1041C0009FA001F065FB601EFEBD6846FFF796FEEE
:1041D00005208DF804005248393890F83110D0F895
:1041E0003100401C4E4A393AC2F83100C8B28DF84D
:1041F00005008DF808500820FFF7FFF8ADF8020021
:104200003A4631460DF1090001F099FC0C2168464F
:10421000FFF7E0F88DF80B000C216846FFF7ACFDC6
:104220000446002C06DA21468FA001F031FB6FF026
:104230000100C9E70C216846FFF771FE2046C3E77D
:1042400070B50446FFF782FD0546354970312046BA
:10425000FFF788FE012814D18AA001F019FB30492C
:1042600066312046FFF7B8FE28B902222C49663194
:104270000420FFF79FFF2A487030216801606168C1
:1042800041608648B5FBF0F100FB115020B984482D
:104290000068A84200D005E119E100004552523AF9
:1042A0002067697A50757444617461206275662074
:1042B000697320656D707479200A0000E70600209C
:1042C0004552523A204661696C656420746F2072D1
:1042D000625772697465200A000000004552523A24
:1042E0002067697A50726F746F636F6C48656164A0
:1042F000496E6974206865616420697320656D701A
:104300007479200A000000004552523A206461741A
:104310006120697320656D707479200A00000000C7
:104320002106002067697A436865636B5265706F88
:104330007274204572726F72202C20496C6C656714
:10434000616C20506172616D0A0000001005002050
:1043500076616C7565414343415F58204368616EE7
:104360006765640A0000000076616C75654143432F
:10437000415F59204368616E6765640A0000000070
:1043800067697A44617461506F696E747332526503
:10439000706F727444617461204572726F72202C68
:1043A00020496C6C6567616C20506172616D0A0018
:1043B000000020C1CDCCCC3D67697A50726F746F1C
:1043C000636F6C49737375656450726F6365737363
:1043D000204572726F72202C20496C6C6567616C8D
:1043E00020506172616D0A005B4552525D2020646D
:1043F000617461204973204E756C6C200A000000C6
:104400006C656E203D202564202C20734469644C2B
:10441000656E203D202564202C646174615F6C65AD
:104420006E203D2025640A007561727420777269E0
:104430007465206572726F72202564200A00000086
:1044400067697A5265706F72744461746120457255
:10445000726F72202C20496C6C6567616C20506112
:1044600072616D0A000000004552523A2075617277
:1044700074207772697465206572726F722025648A
:10448000200A00006368616E6765642C20726570A5
:104490006F727420646174610A000000C027090013
:1044A00014050020F7A001F0F3F9FC492046FFF7BE
:1044B00093FD20B90222F9490420FFF77BFEF7485B
:1044C0000A302168016061684160F548056070BD8F
:1044D0002DE9FE4F80460E4617464FF0000B002098
:1044E000029081468246002534460090B8F1000FC4
:1044F00001D006B137B9EBA001F0CAF94FF0FF3097
:10450000BDE8FE8F4046FFF7F5FA00F0FF0ABAF16A
:10451000000F02D14FF0FF30F2E74FF000095DE0ED
:10452000012201A94046FFF710FB8346BBF1000FB3
:1045300052D0E8480078FF281FD19DF80400FF28DA
:104540001BD1E548007848B9FF2020706070022038
:10455000E24908800120E049087034E0DF48008823
:10456000042830DDDD480088A8422CD0FF202070D0
:1045700060700220D949088025E0D6480078FF28DD
:1045800003D19DF8040055281DD0D3480078012898
:1045900019D19DF80400D14909886054CF4800889A
:1045A000401CCE4908800846008804280BDD009492
:1045B000009C6088FEF721FF001D85B2C748008877
:1045C000A84200D10CE09DF80400C2490870C4481C
:1045D0000078401CC249087009F10109D1459FDBF0
:1045E00000BFBE480088042823DDBC480088A842DC
:1045F0001FD1BA4801882046FEF7ECFE0290B7486A
:104600000088401E215C029881420FD12A46214633
:10461000304601F094FA3D800020AF490870AF4960
:104620000880AF490870AB49087069E76FF0010076
:1046300066E7012064E710B5002498489F3890F899
:104640003A0000B910BDA7A001F022F993489F38A5
:10465000B0F851103B30FFF78FFB04468F489F386E
:10466000B0F85100A04202D0A6A001F011F9FFF766
:104670006DFB8A499F39C1F8530000BFE2E770B56E
:104680000446864D643D34B9AFF2843001F000F940
:104690004FF0FF3070BD2879401C2179884204D149
:1046A0001E217E48663801F0C1FA0020F2E73EB5CF
:1046B0000446002524B999A001F0EAF8681E3EBD21
:1046C00020680090606801909DF80400401CC0B212
:1046D0008DF804000520FEF790FEADF802000921D8
:1046E0006846FEF777FE8DF8080009216846FFF757
:1046F00043FB0546002D04DA2946AFF2942001F071
:10470000C7F82846DBE710B564489F3890F83A00B0
:1047100001282CD161489F3890F83900022821DA0D
:10472000FFF714FB5D499F39D1F85310401AC82890
:104730001DD9FFF70BFB044658489F3890F83930D5
:10474000D0F85320214680A001F0A2F8FFF773FFB4
:1047500052489F3890F83900401C50499F3981F8E1
:10476000390004E01E214D48663801F05FFA10BDA3
:1047700030B59DB0044600252CB97DA001F088F825
:10478000681E1DB030BD6846FFF7B8FB02208DF8EB
:10479000040060798DF8050081A103C9CDE902010B
:1047A00082A103C9CDE9040183A103C9CDE90801B0
:1047B00084A103C9CDE90601202285A10AA801F040
:1047C00003FA20228BA10DF1520001F0B8F900206C
:1047D000CDF84A00CDF84E009DF851008DF85100FB
:1047E0009DF8510040F002018DF851100020FEF7B5
:1047F00004FEADF848006F20FEF7FFFDADF80200A3
:1048000073216846FEF7E6FD8DF872007321684655
:10481000FFF7B2FA0546002D04DA2946AFF2B830A8
:1048200001F036F82846ACE7FEB504460E460025F2
:1048300024B979A001F02CF8681EFEBD6846FFF788
:104840005DFB12208DF8040060798DF805000620CC
:10485000FEF7D3FDADF802008DF808600A21684626
:10486000FEF7B8FD8DF809000A216846FFF784FAC3
:104870000546002D04DA2946AFF2144001F008F88D
:104880002846DAE7496E666F3A2036303053207298
:1048900065706F727420646174610A00870600207D
:1048A0001405002067697A50726F746F636F6C47EC
:1048B00065744F6E655061636B6574204572726FED
:1048C00072202C20496C6C6567616C2050617261AC
:1048D0006D0A00001C050020180500201A050020A4
:1048E0001D0500205761726E696E673A2074696D0C
:1048F000656F75742C20726573656E6420646174D5
:1049000061200A004552523A20726573656E642038
:1049100064617461206572726F720A004552523A86
:104920002067697A50726F746F636F6C436F6D6D3F
:104930006F6E41636B206461746120697320656DE3
:10494000707479200A0000005761726E696E673AD0
:1049500067697A50726F746F636F6C526573656EBE
:1049600064446174612025642025642025640A0064
:1049700067697A50726F746F636F6C4765744465D2
:1049800076696365496E666F204572726F72202C7E
:1049900020496C6C6567616C20506172616D0A0022
:1049A00030303030303030340000000030303030C3
:1049B00030303032000000003033303330303030AF
:1049C0000000000030333031303130300000000062
:1049D00031313066643862373366303734316535AB
:1049E00038333465393862353131613135303234FC
:1049F000000000006138643833323732653537667D
:104A000034363032386334633236336133343439D8
:104A1000636364660000000067697A50726F746FA8
:104A2000636F6C4572726F72436D64204572726F72
:104A300072202C20496C6C6567616C20506172613A
:104A40006D0A000070B5044625462CB9FCA000F0A4
:104A50001FFF4FF0FF3070BDFE48A9680160E96894
:104A60004160298A0181A97C8172A0F1B201B1F86B
:104A7000B200FEF7C2FCF749B239A1F8B200D1F892
:104A8000BA00FEF7C7FCF349B239C1F8BA000E21EB
:104A9000F048B23890F87B207C3081547C3890F814
:104AA0007B00401CEB49B23981F87B000420087080
:104AB0000020D0E710B5FFF749F9044600BFFFF723
:104AC00045F9001BB0F5167FF9D9FFF742F910BD83
:104AD00010B504462CB9E0A000F0DAFE4FF0FF302C
:104AE00010BD2089FEF789FC2081E7480078C0F3DB
:104AF0008000217AC1F3800188425ED0207AC0F321
:104B0000800000282DD0207A00F0010088B100211B
:104B1000D048B23890F869206A3081546A3890F8E9
:104B20006900401CCB49B23981F86900D7A000F078
:104B3000AFFE207AC0F3400000283ED00121C548D6
:104B4000B23890F869206A3081546A3890F8690068
:104B5000401CC049B23981F86900D4A000F098FE29
:104B60002BE0207A00F0010088B10021B948B2386A
:104B700090F869206A3081546A3890F86900401CC6
:104B8000B449B23981F86900C0A000F081FE207AF2
:104B9000C0F3400088B10221AE48B23890F86920D5
:104BA0006A3081546A3890F86900401CA949B239CA
:104BB00081F86900C4A000F06BFEB3480078C0F330
:104BC000C000217AC1F3C001884230D0207AC108E8
:104BD000AD48007861F3C300AB490870207AC0F398
:104BE000C00090B103219B48B23890F869206A3028
:104BF00081546A3890F86900401C9649B23981F8AE
:104C00006900B8A000F044FE11E004219148B238D8
:104C100090F869206A3081546A3890F86900401C25
:104C20008C49B23981F86900B6A000F031FE96488F
:104C30000078C0F30010217AC1F30011884230D00F
:104C4000207A01099048007861F304108E490870B9
:104C5000207AC0F3001090B105217E48B23890F858
:104C600069206A3081546A3890F86900401C79499B
:104C7000B23981F86900ABA000F00AFE11E006210C
:104C80007448B23890F869206A3081546A3890F8D4
:104C90006900401C6F49B23981F86900A9A000F091
:104CA000F7FD79480078C0F34010217AC1F3401134
:104CB000884230D0207A41097348007861F345106A
:104CC00071490870207AC0F3401090B10721614803
:104CD000B23890F869206A3081546A3890F86900D7
:104CE000401C5C49B23981F869009FA000F0D0FDFA
:104CF00011E008215748B23890F869206A30815491
:104D00006A3890F86900401C5249B23981F869004C
:104D10009CA000F0BDFD5C484078C0F3C001607A03
:104D2000C0F3C000814230D0607AC1085648407854
:104D300061F3C30054494870607AC0F3C00090B179
:104D40000B214448B23890F869206A3081546A389F
:104D500090F86900401C3F49B23981F8690091A080
:104D600000F096FD11E00C213A48B23890F8692025
:104D70006A3081546A3890F86900401C3549B2396C
:104D800081F869008EA000F083FD3F484078C0F3B1
:104D90000011607AC0F30010814230D0607A0109BE
:104DA0003948407861F3041037494870607AC0F39D
:104DB000001090B109212748B23890F869206A3074
:104DC00081546A3890F86900401C2249B23981F850
:104DD000690083A000F05CFD11E00A211D48B23893
:104DE00090F869206A3081546A3890F86900401C54
:104DF0001849B23981F8690080A000F049FD0D2101
:104E00001448B23890F869206A3081546A3890F8B2
:104E10006900401C0F49B23981F86900607A00F0DE
:104E2000070081F8B100084690F8B1107AA000F0B0
:104E30002FFD02200749B2390870002050E600001B
:104E40004552523A204E545020697320656D70745B
:104E500079200A009A06002067697A50726F746F91
:104E6000636F6C4D6F64756C6553746174757320FA
:104E70004572726F72202C20496C6C6567616C20E2
:104E8000506172616D0A00001E0500204F6E426F76
:104E9000617264696E673A20536F66744150206F87
:104EA0007220576562206D6F64650A004F6E426F15
:104EB000617264696E673A204169724C696E6B2059
:104EC0006D6F64650A0000004F6E426F6172646925
:104ED0006E673A2053746174696F6E206D6F6465FC
:104EE0000A00000057694669207374617475733A4B
:104EF00020696E2062696E64696E67206D6F6465FB
:104F00000A00000057694669207374617475733A2A
:104F1000206F75742062696E64696E67206D6F64BE
:104F2000650A000057694669207374617475733AA5
:104F300020636F6E6E656374656420726F7574654F
:104F4000720A000057694669207374617475733A78
:104F500020646973636F6E6E656374656420726F3D
:104F6000757465720A0000005769466920737461A0
:104F70007475733A20636F6E6E6563746564206D3B
:104F8000326D0A0057694669207374617475733A0B
:104F900020646973636F6E6E6563746564206D323F
:104FA0006D0A000057694669207374617475733A1D
:104FB0002061707020636F6E6E6563740A0000007C
:104FC00057694669207374617475733A206E6F2057
:104FD00061707020636F6E6E6563740A000000007C
:104FE00057694669207374617475733A20696E203D
:104FF00074657374206D6F64650A000057694669B3
:10500000207374617475733A206F757420746573BE
:1050100074206D6F64650A005253534920697320F0
:105020002564200A0000000010B52C20F849086013
:10503000F848C8600846FEF73FFD18B9F6A000F032
:1050400027FC02E0F9A000F023FCFF21FC4800F05F
:10505000EDFD10BD30B587B005460024062D7DD28C
:10506000DFE805F003316193C1F001A8FEF746FFC8
:105070000B208DF80800F24890F83110D0F831007C
:10508000401CEF4AC2F83100C8B28DF80900052073
:10509000FEF7B3F9ADF80600092101A8FEF79AF969
:1050A0008DF80C00092101A8FEF766FE0446002CCD
:1050B00004DA2146AFF6504000F0EAFB092101A8CE
:1050C000FEF72DFFF0E004A8FEF718FF09208DF889
:1050D0001400DB4890F83110D0F83100401CD84A59
:1050E000C2F83100C8B28DF815008DF818500620AE
:1050F000FEF783F9ADF812000A2104A8FEF76AF959
:105100008DF819000A2104A8FEF736FE0446002C8B
:1051100004DA2146AFF6B04000F0BAFB0A2104A839
:10512000FEF7FDFEC0E004A8FEF7E8FE09208DF8BA
:105130001400C34890F83110D0F83100401CC04A28
:10514000C2F83100C8B28DF815008DF8185006204D
:10515000FEF753F9ADF812000A2100E0A0E004A820
:10516000FEF738F98DF819000A2104A8FEF704FEAD
:105170000446002C04DA2146AFF6145000F088FBF8
:105180000A2104A8FEF7CBFE8EE001A8FEF7B6FECA
:1051900013208DF80800AA4890F83110D0F831009B
:1051A000401CA74AC2F83100C8B28DF8090005209A
:1051B000FEF723F9ADF80600092101A8FEF70AF968
:1051C0008DF80C00092101A8FEF7D6FD0446002C3D
:1051D00004DA2146AFF6705000F05AFB092101A80D
:1051E000FEF79DFE60E001A8FEF788FE15208DF811
:1051F0000800934890F83110D0F83100401C904AD4
:10520000C2F83100C8B28DF809000520FEF7F5F8A4
:10521000ADF80600092101A8FEF7DCF88DF80C00B6
:10522000092101A8FEF7A8FD0446002C04DA214656
:10523000AFF6CC5000F02CFB092101A8FEF76FFE61
:1052400032E0FFE701A8FEF759FE29208DF808009B
:105250007B4890F83110D0F83100401C784AC2F8F1
:105260003100C8B28DF809000520FEF7C6F8ADF888
:105270000600092101A8FEF7ADF88DF80C00092100
:1052800001A8FEF779FD0446002C04DA2146AFF6AA
:10529000286000F0FDFA092101A8FEF740FE03E0B6
:1052A00068A000F0F5FA00BF00BF204607B030BD8F
:1052B0003EB500246846FEF721FE17208DF8040055
:1052C0005F4890F83110D0F83100401C5C4AC2F8B9
:1052D0003100C8B28DF805000520FEF78EF8ADF854
:1052E000020009216846FEF775F88DF808000921CB
:1052F0006846FEF741FD0446002C03DA214657A01C
:1053000000F0C6FA09216846FEF709FE3EBD3EB52B
:1053100000246846FEF7F2FD21208DF8040048487D
:1053200090F83110D0F83100401C454AC2F83100E5
:10533000C8B28DF8050000208DF808000620FEF7A1
:105340005CF8ADF802000A216846FEF743F88DF8D4
:1053500009000A216846FEF70FFD0446002C03DA17
:1053600021463EA000F094FA0A216846FEF7D7FDD8
:105370003EBD70B5044625462CB940A000F088FA21
:105380004FF0FF3070BD412205F108012C48BE30BE
:1053900000F0D5FB0F212A4890F88D208E308154E3
:1053A0008E3890F88D00401C254981F88D0005202D
:1053B00008700020E6E72DE9F0478EB0064600278A
:1053C000002500200290019000248146804636B9D5
:1053D0002EA000F05DFA601E0EB0BDE8F087FFF76A
:1053E00092F902AA1649491C0948FFF771F80746C5
:1053F000002F73D12FA000F04BFAFEF7A7FC8246D6
:10540000BDF80820514630A000F042FA00256DE0BA
:10541000E7060020F706002072624372656174653A
:105420002053756363657373200A000072624372D0
:1054300065617465204661696C64200A00000000A3
:10544000E80500204552523A204366674D6F646577
:10545000206572726F72210A000000004552525B93
:105460004E54505D3A20756172742077726974658C
:10547000206572726F72202564200A004E545020FD
:10548000697320656D707479200A000047697A7726
:1054900069747348616E646C65204572726F722026
:1054A0002C20496C6C6567616C20506172616D0ADB
:1054B00000000000476574204F6E65205061636BEB
:1054C0006574210A0000000057694669324D435552
:1054D0005B2534643A2534645D3A200092E0A948A3
:1054E000415DA9A000F0D4F9681C85B2BDF80800A0
:1054F0008542F4DBAFF2346000F0CAF9A14C2079A8
:105500000F2850D00ADC0E2873D2DFE800F07216A4
:10551000721A7272443972724572463D182853D01D
:1055200006DC112848D0142847D0162861D135E070
:10553000222853D02A285CD131E02046FFF718F901
:105540005FE0E279A17992A000F0A2F901A80090B1
:1055500008F10900BDF808301A1A8A48083000EB33
:10556000080103AB4846FEF750FD40B9E37903A9B3
:105570002046019AFEF7ABFD89A000F089F940E0D2
:105580002046FFF794F83CE02046FFF790F82046CD
:10559000FFF79EFA35E000BF00BF00BF00BF204606
:1055A000FFF76DF82DE02046FFF781F87FA000F0AF
:1055B0006FF9FFF77FFA24E023E02046FFF75FF85A
:1055C0007FA000F065F91CE02046FFF758F8204660
:1055D000FFF738FA82A000F05BF912E02046FFF7EF
:1055E0004EF82046FFF7C5FE83A000F051F908E011
:1055F000FFE702212046FFF717F986A000F048F9DF
:1056000000BF0DE017F1020F0AD15E4C01212046C8
:10561000FFF70AF985A000F03BF96FF00100DBE627
:105620005848401E0078062850D2DFE800F04F03AB
:1056300013232F3F00205349491E08700822A1312F
:10564000A1F14A00FEF720FB12214E48563000F02F
:10565000EDFA3CE000204B49491E08700122B131AF
:10566000A1F14800FEF710FB12214648683000F017
:10567000DDFA2CE000204349491E08700846D0F8A6
:105680002D2017315730FEF7FFFA20E000203D496A
:10569000491E08700C22B231A1F13700FEF7F4FA6E
:1056A000122138487A3000F0C1FA10E00020354964
:1056B000491E08704122BE31A1F13100FEF7E4FA23
:1056C000412130488C3000F0B1FA00E000BF00BF4B
:1056D0003046FEF7B5FD00207EE62DE9F04186B0AC
:1056E00006460F464FF000086C46B81D85B23EB91D
:1056F00054A000F0CDF84FF0FF3006B0BDE8F081C7
:10570000FF2004F8010B04F8010B281204F8010B28
:1057100004F8015B052004F8010B1A48401E90F8BC
:105720003110D0F83100401C164A521EC2F8310028
:1057300004F8011B002004F8010B04F8010B0620FB
:1057400004F8010B3A4631460DF1090000F0F7F973
:10575000291D6846FDF73EFE0146E81C0DF80010C5
:10576000291D6846FEF708FB8046B8F1000F03DAF2
:1057700041463E4800F08CF8291D6846FEF7CFFBF5
:105780000020BAE7E905002025303278200000002B
:10579000666C6167202578202578200A00000000CB
:1057A00041636B44617461203A200A007265706F36
:1057B00072743A4D4355207265626F6F74210A000E
:1057C00041636B2050524F44554354494F4E5F4DF7
:1057D0004F44452073756363657373200A000000AE
:1057E00041636B204745545F555454207375636380
:1057F000657373200A00000041636B204745545FC6
:105800004D6F64756C652073756363657373200AEF
:10581000000000004552523A20636D6420636F64BB
:1058200065206572726F72210A0000004552523A7B
:1058300020636865636B2073756D206572726F728B
:10584000210A00005B4552525D2067697A776974CE
:1058500073506173737468726F75676844617461C3
:10586000204572726F72200A000000006844000830
:10587000704710B5044600F0FFF90068005D0007AE
:1058800004D5DF2C02D0A4F1200010BD204610BDAD
:105890000FB4044910B503AA029800F05BFC10BCD9
:1058A0005DF814FBE404002070B5044685690068C7
:1058B000C10601D5302600E02026C00707D070BD04
:1058C000D4E9012130469047206A401C20626D1EB9
:1058D000F6D570BD70B5044685690078C00707D15C
:1058E00070BDD4E9012120209047206A401C20622D
:1058F0006D1EF6D570BD00002DE9F041064600246E
:1059000010687529314616A510D0AFF30080002825
:1059100002DA404213A507E031688A0701D512A5D3
:1059200002E0490704D511A5012401E0AFF300808E
:1059300000210A2206F1240709E0B0FBF2FCB0FBCB
:10594000F2F302FB1C00303078541846491C002842
:10595000F3D123462A463046BDE8F04100F094B921
:10596000000000002D0000002B00000020000000BF
:1059700070B504460D4621461068AFF300802188BB
:10598000090502D50F4A7A4402E00E4A7A440E32E3
:10599000002104F1240305E000F00F060009965DE4
:1059A0005E54491C0028F7D120780023000704D555
:1059B000702D02D009B1022311322046BDE870409B
:1059C00000F062B91E2900002DE9F05F8946044607
:1059D0004FF0000ADFF824B1FB44C0F820A02046B5
:1059E000E168884700287DD0252806D0D4E9012128
:1059F0009047206A401C2062F1E700255F46204660
:105A0000E16888472028064607DB312E05D2B81901
:105A100010F8200C08B10543F1E7A80701D525F0DF
:105A20000405C4F81CA00027C4F818A02A2E09D029
:105A3000304601F01EF938B304EB8708303EC8F851
:105A4000186019E059F8041B204604EB87029161A5
:105A5000E1688847012F064618D1E069002820DA5E
:105A600025F020051DE0D8F8180000EB800006EBBB
:105A700040003038C8F818002046E16888470646DC
:105A800001F0F7F80028EED1012F0AD02E2E08D110
:105A90002046E16888477F1C0646022F45F0200516
:105AA000C4DBA069002803DA404245F00105A0618B
:105AB000E80701D025F01005A6B1A6F1410019288C
:105AC00002D8203645F400654A4631462046256016
:105AD0004D46FAF787FB60B1012807D0ED1D25F090
